:02000000D92AFB
:1000060083120313F801F9011030FC00710DF80D8D
:10001600F90D7408F8027508031C750FF902031828
:100026001B287408F80775080318750FF9070310DD
:0A003600F00DF10DFC0B0928080085
:10004000403083120313F0001F30F100F201F3017E
:020050000800A6
:1000520083120313B403B4033408003C0318362894
:10006200B4030000000000002D2800000000000082
:0600720000000000080080
:1000780083120313FB01FA01F901F801A001730DC2
:10008800F80D7408F8027508031C750FF902760854
:10009800031C760FFA027708031C770FFB02000196
:1000A800031C0130A002F30D0730FC00730DF80D9E
:1000B800F90DFA0DFB0DA00D7408731C7528F802D4
:1000C8007508031C750FF9027608031C760FFA02EF
:1000D8007708031C770FFB020001031C0130A00204
:1000E8008628F80775080318750FF90776080318A6
:1000F800760FFA0777080318770FFB070001031834
:100108000130A007F30DFC0B5A28720DF80DF90DFC
:10011800FA0DFB0DA00D7408731CA428F8027508CD
:10012800031C750FF9027608031C760FFA0277088C
:10013800031C770FFB020001031C0130A002B52845
:10014800F80775080318750FF90776080318760F6E
:10015800FA0777080318770FFB0700010318013027
:10016800A007F20D0730FC00720DF80DF90DFA0D1D
:10017800FB0DA00D7408721CD328F8027508031C27
:10018800750FF9027608031C760FFA027708031C2C
:10019800770FFB020001031C0130A002E428F807D6
:1001A80075080318750FF90776080318760FFA070C
:1001B80077080318770FFB07000103180130A00721
:1001C800F20DFC0BB828710DF80DF90DFA0DFB0DA9
:1001D800A00D7408721C0229F8027508031C750F1B
:1001E800F9027608031C760FFA027708031C770FCA
:1001F800FB020001031C0130A0021329F80775084F
:100208000318750FF90776080318760FFA077708A9
:100218000318770FFB07000103180130A007F10D41
:100228000730FC00710DF80DF90DFA0DFB0DA00D4E
:100238007408711C3129F8027508031C750FF9023E
:100248007608031C760FFA027708031C770FFB0267
:100258000001031C0130A0024229F80775080318A1
:10026800750FF90776080318760FFA077708031849
:10027800770FFB07000103180130A007F10DFC0BF5
:100288001629700DF80DF90DFA0DFB0DA00D740867
:10029800711C6029F8027508031C750FF9027608AD
:1002A800031C760FFA027708031C770FFB02000184
:1002B800031C0130A0027129F80775080318750F8F
:1002C800F90776080318760FFA0777080318770FE7
:1002D800FB07000103180130A007F00D0730FC00F0
:1002E800700DF80DF90DFA0DFB0DA00D7408701CBA
:1002F8008F29F8027508031C750FF9027608031C8C
:10030800760FFA027708031C770FFB020001031C23
:100318000130A002A029F80775080318750FF9071E
:1003280076080318760FFA0777080318770FFB0784
:10033800000103180130A007F00DFC0B7429701898
:10034800B3297408F80775080318750FF9077608B4
:100358000318760FFA0777080318770FFB070800CA
:10036800831203132230FC00F801F901FA01FB01A2
:10037800FC030319EA290310FB0CFA0CF90CF80C1E
:10038800F30CF20CF10CF00C031CBC29FC03031950
:10039800DC297408F80775080318750FF90776083B
:1003A8000318760FFA0777080318770FFB07C02999
:1003B8007408F80775080318750FF9077608031805
:0E03C800760FFA0777080318770FFB07080077
:1003D6002020E830F4000330F500F601F701B421DF
:1003E6007008B0007108B1007208B2007308B3005B
:1003F6002808F4002908F500F601F7013C207008EA
:10040600B0007108B1007208B2007308B30070083A
:10041600F5007108F6007208F7007308F800F80C8A
:10042600F70CF60CF50CF813F80CF70CF60CF50CAB
:10043600F8137508F0007608F1007708F2007808DE
:10044600F300F30CF20CF10CF00CF3137008AC0093
:100456007108AD0020202A08F4002B08F500F601EB
:10046600F701B4212C08F9002D08FA00FB01FC0164
:100476000330F8007908F4007A08F5007B08F600E6
:100486007C08F700780803194F2AF40DF50DF60DD0
:10049600F70D7410FF3E462A3C207008B000710824
:1004A600B1007208B2007308B3000A30F4000030DD
:1004B600F5002C08F0002D08F10003207008AC00B0
:1004C6007108AD0000307102031D6B2A0330700203
:1004D60003186E2ABB2A250884003308003C031D36
:1004E6007E2A3208003C031D7E2A3108003C031D8B
:1004F6007E2A3008003C0318B92A230880042D08F8
:100506000319952AAE01AF0100302F02031D8D2A73
:100516002D082E020318952AB4012920AE0A0319C4
:10052600AF0A872A2C08B4002920240880052D0844
:100536000319AD2AAE01AF0100302F02031DA52A13
:100546002D082E020318AD2AB4012920AE0A03197C
:10055600AF0A9F2A2C08B40029200130B002031CE0
:10056600B102031CB202031CB302702A24088005E0
:0205760008007B
:10057800831203132808A5002908F1000130F000B0
:1005880071080319CB2AF00D7010FF3EC52A7008B8
:10059800A300F0097008A4008030280784007008C0
:0A05A8008005841370088005080028
:1005B20083120313A601A701831603178801890179
:1005C2000614073083120313A8000230A900BC22CC
:1005D200081CBA2BA601A701081C062B0330FC003D
:1005E2009730FD00FD0BF32AFC0BF32A00000000FC
:1005F200A60A0319A70A2708003C031D022B260896
:10060200643C0318052B062BED2A00302702031D3C
:100612000C2B05302602031C3A2B2708003C031D35
:10062200142B2608143C031C3A2B0530A800013079
:10063200A9006430AA000030AB00EB214930A800C9
:100642000130A9006430AA000030AB00EB218830F1
:10065200A8000130A9006430AA000030AB00EB21F1
:100662000B30A8000230A900C830AA00AB01EB2170
:10067200BA2B00302702031D402B15302602031C23
:10068200662B2708003C031D482B2608283C031C28
:10069200662B8830A8000130A9002830AA0000305B
:1006A200AB00EB210B30A8000230A9002830AA00D1
:1006B2000030AB00EB219330A8000230A9002830B3
:1006C200AA000030AB00EB21BA2B00302702031D39
:1006D2006C2B29302602031C892B2708003C031DA2
:1006E200742B26083C3C031C892B1030A8000330D5
:1006F200A9001930AA000030AB00EB211730A80086
:100702000430A9002330AA000030AB00EB21BA2B41
:1007120000302702031D8F2B3D302602031CBA2B0B
:100722002708003C031D972B26085A3C031CBA2BB2
:100732004930A8000130A9009630AA00AB01EB2194
:100742002630A8000130A9009630AA00AB01EB21A7
:100752000530A8000130A900C830AA00AB01EB2186
:100762007830A8000030A9005E30AA000130AB004A
:06077200EB21E92ABB2B7C
:04400E00F22F000786
:00000001FF
